:020000022000DC
:106000000000012019620200016202000362020026
:10601000056202000762020009620200000000003F
:106020000000000000000000000000000B62020001
:106030000D620200000000000F6202001162020007
:10604000DD13030013620200C91903004D2B030086
:106050001362020013620200E9160300611B0300D1
:106060001362020013620200136202001362020054
:106070001362020013620200136202001362020044
:1060800013620200D1550300136202001362020082
:10609000136202001362020055B70300136202008C
:1060A0001362020013620200136202001362020014
:1060B00013620200136202000000000000000000F2
:1060C00013620200136202001362020013620200F4
:1060D000136202001362020013620200000000005B
:1060E00000000000000000000000000000000000B0
:1060F00000000000000000000000000000000000A0
:10610000000000000000000000000000000000008F
:10611000000000000000000000000000000000007F
:10612000000000000000000000000000000000006F
:10613000000000000000000000000000000000005F
:10614000000000000000000000000000000000004F
:10615000000000000000000000000000000000003F
:10616000000000000000000000000000000000002F
:10617000000000000000000000000000000000001F
:10618000000000000000000000000000000000000F
:1061900000000000000000000000000000000000FF
:1061A00000000000000000000000000000000000EF
:1061B00000000000000000000000000000000000DF
:1061C00000000000000000000000000000000000CF
:1061D00000000000000000000000000000000000BF
:1061E00000000000000000000000000000000000AF
:1061F000000000000000000000000000000000009F
:10620000FEE7FEE7FEE7FEE7FEE7FEE7FEE7FEE766
:10621000FEE7FEE700F002B8FFF7FCBF0F484FF0C3
:106220000701884385460E4880470E48016841F4BF
:1062300070010160BFF34F8FBFF36F8F00F01AB88A
:1062400009480A490A4A884207D0521A05D00378F9
:1062500001300B700131013AF9D170470000012083
:10626000E97F020088ED00E09CC70300683200204F
:106270007C3200203A493B480A1A02D00722914357
:106280008D46394939480A1A06D00722914381F3CD
:106290000988022282F3148835483649364A00F0CC
:1062A00041F836483649374A00F03CF83648374915
:1062B000374A00F037F837483749384A00F032F8A3
:1062C00037483849384A00F02DF838483849394AB3
:1062D00000F028F838483949394A00F023F839489D
:1062E0003949002200F036F838483949002200F0D8
:1062F00031F838483849091A16F0C1F8374A90473A
:1063000025482649884205D00268043003B49047E6
:1063100003BCF7E700208646EC4600200021304A07
:106320009047FEE7884214D0521A12D003460B431E
:1063300013430324234206D1036804300B60043165
:10634000043AF9D17047037801300B700131013AFA
:10635000F9D17047884202D002700130FAE77047E5
:106360000000012000E000200000012000000120CA
:10637000BC0C04007C3200207C330020E46302006B
:10638000E463020018C60300BC0C04007C32002049
:106390007C320020B0C70300B0C70300B0C70300C1
:1063A000B0C70300B0C70300B0C70300B0C7030005
:1063B000B0C70300BC0C0400BC0D04007C330020FB
:1063C0007C3300207C33002078490020784900206D
:1063D0007849002078490020786900204162020055
:0463E0009D720200A8
:1063E40000B583B00190019B043318460BF0DEFF27
:1063F40000BF03B05DF804FB00B589B005900392BB
:106404001A460B468DF8133013468DF812300023CC
:106414000793059B181D9DF812209DF813109DF8F5
:10642400283000931346039A0CF02AFA0790079B2E
:10643400184609B05DF804FB00B587B003900192DB
:106444001A460B468DF80B3013468DF80A3000239C
:106454000593039B181D9DF80A309DF80B10019AB3
:106464000CF036FA0590059B184607B05DF804FB5E
:1064740000B587B06B4600221A605A609A60DA60F1
:1064840016230093192301934FF0CC730293022334
:106494008DF80C3069460023002213480AF03EFDB3
:1064A4000590059B0493049B002B04D00F4A1D21E7
:1064B40004980DF0B9FF0C48FFF792FF00F04AF87A
:1064C40000F06BF800F08CF800F0ADF800F0B2F8D2
:1064D40000F00EF800F01BF81F213F2000F042F9F5
:1064E40000BF07B05DF804FBB0C70300C0C70300DA
:1064F40008B50E21202000F035F90021212000F0FC
:1065040031F90721222000F02DF900BF08BD00B5A4
:1065140083B000238DF8003000238DF80130002370
:106524008DF8023001238DF8033001238DF80430F7
:1065340001238DF8053001238DF8063001238DF8F1
:1065440007306B4619463F2000F097F800BF03B0B0
:106554005DF804FB00B583B000238DF80030002300
:106564008DF8013000238DF8023000238DF80330BC
:1065740000238DF8043001238DF8053000238DF8B5
:10658400063000238DF807306B4619463E2000F094
:1065940074F800BF03B05DF804FB00B583B00123B9
:1065A4008DF8003000238DF8013000238DF802307F
:1065B40000238DF8033000238DF8043000238DF878
:1065C400053000238DF8063000238DF807306B4624
:1065D40019463D2000F051F800BF03B05DF804FBFC
:1065E40000B583B000238DF8003000238DF801300E
:1065F40000238DF8023000238DF8033000238DF83A
:10660400043000238DF8053001238DF80630002373
:106614008DF807306B4619463A2000F02EF800BF7B
:1066240003B05DF804FB08B5FF21392000F09AF8A7
:1066340000BF08BD00B583B000238DF800300023EF
:106644008DF8013000238DF8023000238DF80330DB
:1066540000238DF8043000238DF8053000238DF8D5
:10666400063000238DF807306B461946382000F0B9
:1066740004F800BF03B05DF804FB00B585B0034621
:1066840000918DF8073000238DF80F30009B1A78A5
:106694009DF80F3013438DF80F309DF80F305B00D9
:1066A4008DF80F30009B5A789DF80F3013438DF806
:1066B4000F309DF80F305B008DF80F30009B9A78F7
:1066C4009DF80F3013438DF80F309DF80F305B00A9
:1066D4008DF80F30009BDA789DF80F3013438DF856
:1066E4000F309DF80F305B008DF80F30009B1A7946
:1066F4009DF80F3013438DF80F309DF80F305B0079
:106704008DF80F30009B5A799DF80F3013438DF8A4
:106714000F309DF80F305B008DF80F30009B9A7995
:106724009DF80F3013438DF80F309DF80F305B0048
:106734008DF80F30009BDA799DF80F3013438DF8F4
:106744000F309DF80F305B008DF80F309DF80F204F
:106754009DF807301146184600F004F800BF05B054
:106764005DF804FB00B589B003460A468DF80F3086
:1067740013468DF80E309DF80F308DF814309DF8C7
:106784000E308DF8153005AA0023009302231D2135
:106794000948FFF731FE0790079B0693069B002BE1
:1067A40006D0064A40F2C71106980DF03DFE00BF20
:1067B40000BF09B05DF804FBB0C70300C0C7030005
:1067C40000B589B003468DF80F300DF10F02012397
:1067D400009301231D211448FFF70EFE0790079B29
:1067E4000693069B002B05D0104A40F2CF11069861
:1067F4000DF01AFE0DF1130201231D210A48FFF7C3
:106804001BFE0790079B0593059B002B05D0074AA9
:1068140040F2D51105980DF007FE9DF81330184687
:1068240009B05DF804FB00BFB0C70300C0C7030094
:1068340000B587B00390029101920920FFF7C0FFD1
:1068440003468DF810300820FFF7BAFF03468DF891
:1068540011300B20FFF7B4FF03468DF812300A20E5
:10686400FFF7AEFF03468DF813300D20FFF7A8FFA6
:1068740003468DF814300C20FFF7A2FF03468DF871
:1068840015309DF81020039B1A709DF81220029B6E
:106894001A709DF81420019B1A7000BF07B05DF8B0
:1068A40004FB72DF704700BF184673DF704700BFF8
:1068B400184676DF704700BF18467ADF704700BF7E
:1068C40018467CDF704700BF18468FDF704700BF53
:1068D4001846000000B585B00190019B002B0AD03A
:1068E400074B43F001030393019B9B010293039B1A
:1068F4000298984700E000BF05B05DF804FB00BFB4
:1069040030CA030000B583B00190019B002B0AD06C
:106914004FF47A70FFF7DEFF019B013B0193019B6B
:10692400002BF5D100E000BF03B05DF804FB0000CC
:1069340000B583B003460091ADF80630BDF80630CB
:10694400009A194603480DF06FFD00BF03B05DF8CF
:1069540004FB00BFEFBEADDE00B583B0019001982B
:1069640007F06CFF019807F0CDFF019B1B780C2BFF
:1069740003D1002000F01EFC00E000BF00BF03B004
:106984005DF804FB00B585B00346ADF806300C4A4B
:10699400BDF806301380BDF806301946094805F0E5
:1069A4009CFC0390039B0293029B002B04D0064A99
:1069B400F12102980DF038FD00BF05B05DF804FB2D
:1069C400943200207C3300205CC8030000B583B0FF
:1069D4000EF098F80190019B0093009B002B04D0CB
:1069E400044AFE2100980DF01FFD00BF03B05DF8BE
:1069F40004FB00BF5CC8030000B587B09DF80030FD
:106A0400012262F303038DF800309DF80030012267
:106A140062F307138DF800306B460B221C491846AD
:106A2400FFF74FFF0590059B0493049B002B05D0B3
:106A3400184A4FF4877104980DF0F6FC01AB082254
:106A44000021184615F0B6FD4FF4C873ADF80430B4
:106A54004FF49663ADF806300023ADF808304FF4D8
:106A6400C873ADF80A3001AB1846FFF726FF05904E
:106A7400059B0393039B002B05D0064A40F2191192
:106A840003980DF0D1FC00BF07B05DF804FB00BF14
:106A9400E0C803005CC8030000B583B000210948C6
:106AA40005F0F0FB0190019B0093009B002B05D0A7
:106AB400054A4FF49D7100980DF0B6FC00BF03B079
:106AC4005DF804FB7C3300205CC8030000B583B090
:106AD4000190054A40F2491101980DF0A5FC00BF50
:106AE40003B05DF804FB00BF5CC8030000B583B0CD
:106AF40001900091009B1B78002B02D0012B0CD03D
:106B040017E00E4A0E4BD31ADB081B0443F00303B1
:106B14000C49184613F0FCF90BE0084A084BD31A49
:106B2400DB081B0443F003030749184613F0F0F98C
:106B340000BF00BF03B05DF804FB00BFE4C6030060
:106B4400ACC6030044C903006CC9030000B587B098
:106B540001AB00221A605A609A600B4B019301AB9F
:106B640019460A4801F056F90590059B0493049BC5
:106B7400002B05D0064A40F27B1104980DF054FC1A
:106B840000BF07B05DF804FBF16A0200D0370020B3
:106B94005CC8030000B585B0002301930B4B01933F
:106BA40001AB19460A4805F0D9FC0390039B0293F4
:106BB400029B002B05D0074A4FF4C47102980DF0D4
:106BC40033FC00BF05B05DF804FB00BFD16A0200CE
:106BD400903300205CC8030008B5FFF7DBFFFFF724
:106BE400B5FF00BF08BD000000B585B00190019B52
:106BF4001B78002B11D10B4B1B883B211846FFF748
:106C040058FE0390039B0293029B002B05D0064A77
:106C14004FF4D37102980DF007FC00BF05B05DF886
:106C240004FB00BF7C3200205CC8030000B583B0C5
:106C34000190054A40F2B11101980DF0F5FB00BF37
:106C440003B05DF804FB00BF5CC8030000B58BB063
:106C540001AB1C220021184615F0ACFC0023019363
:106C64004FF4A03302934FF4F023039303238DF8DE
:106C740010300023ADF8123000238DF814300C4B83
:106C840006930C4B079301AB184602F02DFF0990B5
:106C9400099B0893089B002B05D0074A4FF4E47125
:106CA40008980DF0C1FB00BF0BB05DF804FB00BFFA
:106CB400ED6B0200316C02005CC8030000BF70473A
:106CC40000B58BB00190009100230993019B1B88B0
:106CD400562B7AD0562B00F38B803B2B62D03B2B68
:106CE40000F38680212B43D0212B00F38180102BCD
:106CF4000DD0112B7CD1454A454BD31ADB081B041C
:106D040043F003034349184613F002F979E03F4A7C
:106D14003F4BD31ADB081B0443F003033E491846D8
:106D240013F0F6F8072000F019FF0990099B05936A
:106D3400059B002B05D0394A40F21A2105980DF025
:106D440073FB019B9A88364B1A80354B1B88194676
:106D5400344805F025FC0990099B0493049B002BFF
:106D640048D02E4A40F21D2104980DF05DFB41E00D
:106D740000238DF80C3000238DF80D30019B9B8887
:106D840003AA11461846FFF7A0FD0990099B069334
:106D9400069B002B30D0214A40F2292106980DF0A1
:106DA40043FB29E0019B9B8813211846FFF781FDD3
:106DB4000990099B0893089B002B1FD0174A40F2A7
:106DC400322108980DF030FB18E0019B9B881321B9
:106DD4001846FFF76EFD0990099B0793079B002B4C
:106DE4000ED00E4A40F23A2107980DF01DFB07E041
:106DF40000BF06E000BF04E000BF02E000BF00E007
:106E040000BF00BF0BB05DF804FB00BFE4C6030085
:106E1400ACC60300A8C90300B8C903005CC80300DA
:106E24007C3200209033002000B587B014F0B0FB12
:106E34000590059B0493049B002B05D0164A40F251
:106E44004D2104980DF0F0FA0023019301AB19468B
:106E5400012014F0B3FC0590059B0393039B002BC6
:106E640005D00D4A40F2532103980DF0DDFA01AB31
:106E7400184614F0C1FD0590059B0293029B002B5C
:106E840005D0054A40F2572102980DF0CDFA00BF13
:106E940007B05DF804FB00BF5CC8030000B585B013
:106EA40003468DF807309DF807301A464FF6FF71F8
:106EB4000B4805F02EFA0390039B0293029B002BD0
:106EC40005D0084A40F2612102980DF0ADFA064A55
:106ED4009DF80730937100BF05B05DF804FB00BF57
:106EE4007C3300205CC803009432002000B587B0D6
:106EF40007F090F80590059B0493049B002B05D0A4
:106F0400384A4FF41C7104980DF08EFA6B46052232
:106F14000021184615F04EFB9DF8003043F00103A4
:106F24008DF800309DF8003023F002038DF8003016
:106F34009DF8003023F004038DF800309DF80030F4
:106F440023F008038DF800309DF80030032262F32B
:106F540006138DF800309DF8003023F080038DF87F
:106F6400003007238DF8013010238DF802309DF88E
:106F7400033043F001038DF803309DF8033043F0F0
:106F840002038DF803309DF8043043F001038DF8BB
:106F940004309DF8043043F002038DF804306B464E
:106FA400184607F019F90590059B0393039B002BE2
:106FB40005D00C4A40F2832103980DF035FA0A48B3
:106FC40007F0E2F80590059B0293029B002B05D085
:106FD400044A40F2862102980DF026FA00BF07B059
:106FE4005DF804FB5CC803005D69020000B583B072
:106FF4000E4A0F4BD31ADB081B0443F003030D495D
:10700400184612F085FF07F05DF90190019B00938B
:10701400009B002B05D0084A40F2932100980DF004
:1070240003FA00BF03B05DF804FB00BFE4C603002D
:10703400ACC60300C4C903005CC8030000B5A9B012
:1070440015AB3C220021184615F0B4FA02238DF842
:10705400543001238DF8563006238DF8573006AB93
:107064003C220021184615F0A5FA0123ADF828307A
:107074002A4B0B932A4B196815AB2A4A184601F080
:107084000AFF2790279B2693269B002B05D0264A90
:1070940040F2E22126980DF0C7F9214B996806AB1E
:1070A400224A184601F0F7FE2790279B2593259B3B
:1070B400002B05D01C4A40F2E52125980DF0B4F9C7
:1070C4006B4618220021184615F074FA01238DF836
:1070D400153044F25063ADF80C3001238DF80030C4
:1070E4000023019300238DF814304FF49673029318
:1070F4006B461A460A490E48FFF7D3FB2790279B95
:107104002493249B002B05D0074A4FF43D71249807
:107114000DF08AF900BF29B05DF804FB903200201D
:1071240080320020843200205CC803008C320020AE
:107134007E32002000B583B04FF48041002012F06D
:1071440007FC0190019B0093009B002B05D0064A8D
:1071540040F2FF2100980DF067F912F08FFB00BF99
:1071640003B05DF804FB00BF5CC8030000B583B046
:1071740012F034F80190019B0093009B002B05D082
:10718400044A40F20B3100980DF04EF900BF03B0F1
:107194005DF804FB5CC8030008B512F043FF034626
:1071A40083F00103DBB2002B01D012F02DF800BFF5
:1071B40008BD000000B585B003468DF807309DF882
:1071C4000730002B02D0FFF711FF11E00A4B1B78A8
:1071D40001211846FFF769FB0390039B0293029B6E
:1071E400002B05D0054A40F22B3102980DF01CF912
:1071F40000BF05B05DF804FB7E3200205CC80300CC
:1072040000B5A5B06B4688220021184615F0D2F9C6
:107214005623ADF800300123ADF808309923ADF8BA
:107224001030FF23ADF81830BB23ADF820302423F1
:10723400ADF838302023ADF84030134B1B881A4684
:107244001249134800F07EFE2390239B002B17D095
:10725400239B43F20202934212D0239B082B0FD0AC
:10726400239B43F2014293420AD0239B2293229B05
:10727400002B05D0074A4FF4527122980DF0D4F830
:1072840000BF25B05DF804FB7C320020B03800203C
:10729400D03700205CC8030000B58FB000238DF800
:1072A4003730FFF747FFFFF791FBFFF75FFFFFF76B
:1072B400BBFDFFF7A1FBFFF7EFFBFFF78DFCFFF72B
:1072C400BDFEFFF7C3FCFFF711FE00238DF8353038
:1072D400314B1B881846FFF755FB0DF135031A4651
:1072E4004FF6FF712D4805F054F89DF83530FB2B0F
:1072F40002D0FB20FFF7D2FD294A2A4BD31ADB0820
:107304001B0443F003032849184612F001FEFFF75B
:10731400D5FC9DF836301846FFF74CFF2349002072
:1073240013F070FFFFF7A4F82149002013F0FCFBD1
:1073340008AB1946002013F0F7FB1E49002013F098
:10734400F3FB0DF11D020DF11E010DF11F03184693
:10735400FFF76EFA9DF81F301A461749002013F004
:1073640051FF9DF81F20154B1A709DF81F301A46C7
:107374009DF81E3019469DF81D3000930B461049A8
:10738400104814F0C9FDFFF73BFFFA20FFF7BAFAE3
:10739400FFF702FFD5E700BF943200207C330020C2
:1073A400E4C60300ACC60300D4C90300F0C903005B
:1073B40000CA030010CA030014CA0300AC3800203A
:1073C40020CA0300B038002000B583B00190019BAF
:1073D4001B681F2B04D9054940F2CD10FFF7A8FA0A
:1073E4004FF0A043184603B05DF804FB38CA03000D
:1073F40000B585B0019001AB1846FFF7E5FF039097
:10740400019B012202FA03F31946039800F069F87C
:1074140000BF05B05DF804FB00B585B0019001AB79
:107424001846FFF7D1FF0390019B012202FA03F3F0
:107434001946039800F05FF800BF05B05DF804FB3F
:1074440000B585B0019001AB1846FFF7BDFF03906E
:10745400039BD3F804350293029BDA43019B012179
:1074640001FA03F31A40039BC3F80825019B012288
:107474009A40029B1A40039BC3F80C2500BF05B039
:107484005DF804FB00B583B001900091009B002BD4
:1074940003D10198FFF7C0FF02E00198FFF7A8FFAE
:1074A40000BF03B05DF804FB00B585B0019001ABEB
:1074B4001846FFF789FF0390039800F00AF8024684
:1074C400019B22FA03F303F00103184605B05DF8AB
:1074D40004FB82B00190019BD3F80435184602B036
:1074E400704782B001900091019B009AC3F808256F
:1074F40000BF02B0704782B001900091019B009AD6
:10750400C3F80C2500BF02B07047000000B585B079
:107514000190019B032B03D911493A20FFF708FA84
:10752400104A019B13441B781846FFF7BDFF03461E
:10753400002B14BF012300238DF80F309DF80F306A
:10754400002B14BF01230023DBB283F00103DBB261
:1075540003F00103DBB2184605B05DF804FB00BF7D
:1075640068CA0300E8CA030000B583B00190019B18
:10757400032B03D907494120FFF7DAF9064A019B97
:1075840013441B7800211846FFF77CFF00BF03B0AB
:107594005DF804FB68CA0300E8CA030000B583B0C1
:1075A4000190019B032B03D907494720FFF7C0F93A
:1075B400064A019B13441B7801211846FFF762FF1A
:1075C40000BF03B05DF804FB68CA0300E8CA030007
:1075D40000B583B00023019305E00198FFF7DEFFB7
:1075E400019B01330193019B032BF6D900BF00BF1C
:1075F40003B05DF804FB00B583B00023019305E0FC
:107604000198FFF7B1FF019B01330193019B032B09
:10761400F6D900BF00BF03B05DF804FB00B583B02A
:107624000190019B032B03D907495F20FFF780F9E1
:10763400064A019B13441B781846FFF701FF00BF5D
:1076440003B05DF804FB00BF68CA0300E8CA030086
:1076540000B583B00C4B1B78002B0FD00023019393
:1076640008E0019B022B02D00198FFF797FF019BD2
:1076740001330193019B032BF3D901E0FFF7A8FF2A
:1076840000BF03B05DF804FBB83800202DE9D04FEB
:1076940092B003468DF83F300023119300231093DA
:1076A400CC4B1B78002B04D0CA4A00231370FFF77D
:1076B400CFFF9DF83F30172B00F23F8201A252F812
:1076C40023F000BF297702004177020041770200CE
:1076D400DD77020079780200F578020089790200EA
:1076E400A9790200B9790200E5790200037A02005F
:1076F400217A02003F7A02004D7A02004D7A02009C
:107704004D7A02004D7A02004D7A0200E17A0200BD
:10771400EF7A0200037B0200177B0200317B020038
:10772400317B0200FFF794FFAB4B18460DF094FA3F
:107734001190AA4A9DF83F301370FFE10020FFF733
:10774400E5FE0346002B0DD00020FFF727FF9DF830
:107754003F30022B02D14FF4E16301E04FF47A632E
:1077640010930BE00020FFF7FFFE9DF83F30022B43
:1077740001D1C82301E04FF4C8731093974A9DF8D0
:107784003F301370944C109B0022009301924FF0F1
:1077940000024FF00003DDE900673946CB033146B0
:1077A40043EA51433146CA0312F57A71029143F117
:1077B400000303934FF4FA624FF00003DDE9020182
:1077C40014F09EFA02460B46134600221946204640
:1077D4000DF00AFA1190B1E10020FFF797FE03467D
:1077E400002B0DD00020FFF7D9FE9DF83F30032B6E
:1077F40002D14FF4487301E04FF47A6310930BE025
:107804000020FFF7B1FE9DF83F30032B01D1C823C0
:1078140001E04FF4C8731093704A9DF83F30137021
:107824006D4C109B0022049305924FF000024FF020
:107834000003DDE904673946CB03314643EA51438B
:107844003146CA0312F57A71069143F10003079396
:107854004FF4FA624FF00003DDE9060114F050FA28
:1078640002460B4613460022194620460DF0BCF989
:10787400119063E10020FFF749FE0346002B06D078
:107884000020FFF78BFE4FF47A63109305E000208D
:10789400FFF76AFE4FF4C8731093504A9DF83F30C7
:1078A40013704D4C109B00229A4693464FF00002F1
:1078B4004FF000034FEACB3343EA5A434FEACA324C
:1078C40012F57A71089143F1000309934FF4FA62B7
:1078D4004FF00003DDE9080114F012FA02460B46EA
:1078E40013460022194620460DF07EF9119025E139
:1078F4000020FFF70BFE0346002B0CD00020FFF7FF
:107904004DFE9DF83F30052B01D1C82301E04FF413
:107914007A6310930BE00020FFF726FE9DF83F30BA
:10792400052B01D1C82301E04FF4C87310932B4AEF
:107934009DF83F301370284C109B002298469146C6
:107944004FF000024FF000034FEAC93343EA5843B3
:107954004FEAC83212F57A710A9143F100030B938E
:107964004FF4FA624FF00003DDE90A0114F0C8F99C
:1079740002460B4613460022194620460DF034F900
:107984001190DBE00020FFF749FE144A9DF83F30D8
:107994001370114B002240F2666118460DF024F971
:1079A4001190CBE00020FFF7DFFD0C4A9DF83F303B
:1079B4001370C3E0074B01221A700120FFF72EFE5B
:1079C400054B002240F2666118460DF00DF9119046
:1079D400B4E000BFB2380020C0380020B138002025
:1079E400594B01221A700120FFF718FE574B002251
:1079F4004FF4005118460DF0F7F811909EE0524BE9
:107A040001221A700120FFF709FE504B002240F2B8
:107A1400666118460DF0E8F811908FE04A4B012298
:107A24001A700120FFF7FAFD484B00224FF4005171
:107A340018460DF0D9F8119080E0FFF7DCFD444AB8
:107A44009DF83F30137079E0424B18460DF004F96D
:107A540011909DF83F30C3F111031093109B002B3C
:107A640035D0119B002B32D1109B012B28D9394CD6
:107A7400109B9BB21A46C82302FB03F3DA171E4677
:107A840017464FF000024FF00003FB0343EA56434E
:107A9400F20312F57A710C9143F100030D934FF444
:107AA400FA624FF00003DDE90C0114F029F90246F3
:107AB4000B4613460022194620460DF095F8119006
:107AC4000220FFF751FD244B01221A7036E00220F8
:107AD400FFF764FD204B00221A702FE0FFF7B8FD7A
:107AE4001B4A9DF83F30137028E0FFF7B1FD0020DA
:107AF400FFF73AFD164A9DF83F3013701EE0FFF77A
:107B0400A7FD0120FFF730FD114A9DF83F301370A7
:107B140014E0FFF79DFD0020FFF726FD0120FFF78D
:107B240023FD0B4A9DF83F30137007E0FFF763FD18
:107B3400074A9DF83F30137000E000BF119B1846C0
:107B440012B0BDE8D08F00BFB2380020C03800208A
:107B5400B1380020E0380020B838002000B585B0E6
:107B640003468DF8073000230393084B1B6803F08A
:107B74000103002B05D09DF807301846FFF786FD5A
:107B84000390039B184605B05DF804FBB43800204D
:107B940084B001900B468DF8033013468DF8023003
:107BA40000230393019B032B3CD89DF80230012B47
:107BB4000BD19DF80330012B04D1019BDBB20E33B2
:107BC400DBB200E000238DF802309DF80330022B75
:107BD4000FD0022B23DC002B16D0012B1FD114490C
:107BE400019A13465B0013440B449DF802201A705B
:107BF4001AE00F49019A13465B0013440B44013306
:107C04009DF802201A700FE00949019A13465B009F
:107C140013440B4402339DF802201A7004E0072336
:107C2400039301E007230393039B184604B07047B2
:107C34000039002000B583B0012200210020FFF7A5
:107C4400A7FF0190019B002B04D0019B072B01D0BF
:107C5400019B1CE0072202210120FFF799FF0190FC
:107C6400019B002B04D0019B072B01D0019B0EE04C
:107C7400042202210020FFF78BFF0190019B002BBF
:107C840004D0019B072B01D0019B00E00023184680
:107C940003B05DF804FB00B583B00122022100208B
:107CA400FFF776FF0190019B002B04D0019B072B6B
:107CB40001D0019B1CE0072202210120FFF768FF8D
:107CC4000190019B002B04D0019B072B01D0019B49
:107CD4000EE00A2200210020FFF75AFF0190019BC9
:107CE400002B04D0019B072B01D0019B00E0002353
:107CF400184603B05DF804FB00B585B0019000910F
:107D0400019B1B88102B02D0112B18D02FE01A4B8B
:107D14001B68002B0DD1FFF78DFF0390039B002BF5
:107D240007D0164B1B68002B03D0144B1B68039819
:107D34009847114B1B6801330F4A136017E00E4B31
:107D44001B68013B0C4A13600B4B1B68002B0DD1C5
:107D5400FFF7A1FF0390039B002B07D0074B1B6881
:107D6400002B03D0054B1B680398984700BF00BF46
:107D740005B05DF804FB00BF103900200C39002069
:107D8400A8DF704700BF1846AADF704700BF184637
:107D9400AEDF704700BF184662DF704700BF184669
:107DA40000B585B001900091009B06330393039BBB
:107DB4001A88019B5B899A4214D1039B0C331846A1
:107DC40002F059FB0346002B03D000238DF8083042
:107DD40002E001238DF80830019B1B6802AA1146BA
:107DE4000198984700BF05B05DF804FB00B585B065
:107DF40001900091009B0393019B1B88502B04D19D
:107E040001990398FFF7CCFF00E000BF00BF05B065
:107E14005DF804FB10B5A2B001900091009B1A68B4
:107E2400019B1A60019B4FF6FF72DA81424B13AC3F
:107E34000FCB84E80F00019B03F1100213AB114632
:107E44001846FFF7A9FF2190219B002B01D0219B0D
:107E54006EE0019B1B7C8DF87E304FF40053ADF82F
:107E64007C30019B1A1D1FAB19460120FFF788FFC8
:107E74002190219B002B01D0219B59E012AB0322BE
:107E84000021184614F096FB9DF84A30012262F353
:107E940042038DF84A300DAB14220021184614F029
:107EA40089FB1FAB0D9312AB0E9306AB1C22002172
:107EB400184614F07FFB9DF8183043F002038DF848
:107EC40018309DF8183043F010038DF818300F2344
:107ED400ADF840300F23ADF83C30184B02AC0FCB5B
:107EE40007C4238002341B0C237002AB11939DF84A
:107EF4004830012262F303038DF848309DF848307E
:107F0400012262F307138DF84830019B9888019B86
:107F140006330DAA06A9FFF737FF2190219B209372
:107F2400209B002B04D0064A902120980CF07CFA68
:107F3400184622B010BD00BFA0CB0300B0CB030095
:107F4400ECCA030000B58BB0039002911346ADF860
:107F54000630039B002B01D10E231FE00F23ADF845
:107F6400163006AB10220021184614F023FB039BA5
:107F7400DB88ADF8183001238DF81A300023ADF8F2
:107F84001C300DF116030893029B099306AABDF851
:107F9400063011461846FFF7FBFE034618460BB0A1
:107FA4005DF804FBBFF34F8F00BF074BDB6803F49E
:107FB400E0620549054B1343CB60BFF34F8F00BF0D
:107FC40000BF00BFFCE700BF00ED00E00400FA05BD
:107FD400024B034A1A6000BF704700BF9C32002066
:107FE4000090D00308B500F069F90346002B06D0D1
:107FF400A04B1B681B0AA04A03F01F03136000F088
:1080040089F90346002B02D09C4B9D4A1A6000F06C
:108014009DF90346002B06D09A4B1B685B0B9A4ACA
:1080240003F00703136000F0BDF90346002B05D0ED
:10803400964BDB68954A23F08073D36000F0CEF949
:108044000346002B0ED04FF080430022C3F80C21CE
:108054004FF080430022C3F810214FF080430022E8
:10806400C3F8382500F0E6F90346002B02D0884B0C
:1080740003221A6000F0FAF90346002B0BD0854B5B
:1080840005221A60844B01221A60844B00221A6074
:10809400834B3F221A6000F005FA0346002B76D08A
:1080A4004FF080537F4AD3F80434C2F820354FF0A0
:1080B40080537C4AD3F80834C2F824354FF08053F7
:1080C400784AD3F80C34C2F828354FF08053754AF7
:1080D400D3F81034C2F82C354FF08053714AD3F8DA
:1080E4001434C2F830354FF080536E4AD3F8183444
:1080F400C2F834354FF080536A4AD3F81C34C2F8BE
:1081040040354FF08053674AD3F82034C2F84435E1
:108114004FF08053634AD3F82434C2F848354FF003
:108124008053604AD3F82834C2F84C354FF080535A
:108134005C4AD3F82C34C2F850354FF08053594A76
:10814400D3F83034C2F854354FF08053554AD3F83D
:108154003434C2F860354FF08053524AD3F838347F
:10816400C2F864354FF080534E4AD3F83C34C2F819
:1081740068354FF080534B4AD3F84034C2F86C351D
:108184004FF08053474AD3F84434C2F8703500F0B6
:10819400A5F90346002B05D0434B1B68434A03F063
:1081A4004F03136000F0C6F90346002B0DD04FF0C7
:1081B4008043D3F8003403F00103002B05D04FF0C3
:1081C40080436FF00102C3F8002400F0DFF9034696
:1081D400002B05D0364B1B68354A43F4806313608B
:1081E400344BD3F88830334A43F47003C2F88830F0
:1081F400BFF34F8F00BFBFF36F8F00BF4FF010234B
:10820400D3F80032002B05DB4FF01023D3F80432EF
:10821400002B2BDA284B0122C3F8042500BF264B80
:10822400D3F80034002BFAD04FF010231522C3F8F2
:10823400002200BF204BD3F80034002BFAD04FF0BB
:1082440010231522C3F8042200BF1B4BD3F80034BB
:10825400002BFAD0184B0022C3F8042500BF164B9C
:10826400D3F80034002BFAD0FFF79CFEFFF7B0FEE2
:1082740000BF08BD240300104035014074C007400E
:108284000DF0ADBA440200103C050040F0ED00E0F2
:10829400A005004010560040885600401856004083
:1082A4001456004000C0004058020010E40E004084
:1082B4003C17004000ED00E000E00140124B1B6859
:1082C400DBB2062B1DD1114B1B6803F00F03002BEF
:1082D40017D10F4B1B6803F0F003302B01D101239E
:1082E40010E00B4B1B6803F0F003402B01D101237A
:1082F40008E0074B1B6803F0F003502B01D1012366
:1083040000E0002318467047E00F00F0E40F00F08F
:10831400E80F00F00A4B1B68DBB2062B0DD1094BAA
:108324001B6803F00F03002B07D1074B1B6803F0F6
:10833400F003302B01D1012300E0002318467047DD
:10834400E00F00F0E40F00F0E80F00F0124B1B68A0
:10835400DBB2062B1DD1114B1B6803F00F03002B5E
:1083640017D10F4B1B6803F0F003302B01D101230D
:1083740010E00B4B1B6803F0F003402B01D10123E9
:1083840008E0074B1B6803F0F003502B01D10123D5
:1083940000E0002318467047E00F00F0E40F00F0FF
:1083A400E80F00F00A4B1B68DBB2062B0DD1094B1A
:1083B4001B6803F00F03002B07D1074B1B6803F066
:1083C400F003302B01D1012300E00023184670474D
:1083D400E00F00F0E40F00F0E80F00F0124B1B6810
:1083E400DBB2062B1DD1114B1B6803F00F03002BCE
:1083F40017D10F4B1B6803F0F003302B01D101237D
:1084040010E00B4B1B6803F0F003402B01D1012358
:1084140008E0074B1B6803F0F003502B01D1012344
:1084240000E0002318467047E00F00F0E40F00F06E
:10843400E80F00F00A4B1B68DBB2062B0DD1094B89
:108444001B6803F00F03002B07D1074B1B6803F0D5
:10845400F003302B01D1012300E0002318467047BC
:10846400E00F00F0E40F00F0E80F00F00A4B1B6887
:10847400DBB2062B0DD1094B1B6803F00F03002B55
:1084840007D1074B1B6803F0F003302B01D1012304
:1084940000E0002318467047E00F00F0E40F00F0FE
:1084A400E80F00F00A4B1B68DBB2062B0DD1094B19
:1084B4001B6803F00F03002B07D1074B1B6803F065
:1084C400F003502B01D1012300E00023184670472C
:1084D400E00F00F0E40F00F0E80F00F0124B1B680F
:1084E400DBB2062B1DD1114B1B6803F00F03002BCD
:1084F40017D10F4B1B6803F0F003302B01D101237C
:1085040010E00B4B1B6803F0F003402B01D1012357
:1085140008E0074B1B6803F0F003502B01D1012343
:1085240000E0002318467047E00F00F0E40F00F06D
:10853400E80F00F0124B1B68DBB2062B1DD1114B68
:108544001B6803F00F03002B17D10F4B1B6803F0BC
:10855400F003302B01D1012310E00B4B1B6803F017
:10856400F003402B01D1012308E0074B1B6803F003
:10857400F003502B01D1012300E00023184670477B
:10858400E00F00F0E40F00F0E80F00F0064B1B686A
:10859400062B05D1054B1B68062B01D1012300E0F6
:1085A40000231846704700BF30010010340100104A
:1085B4006DDF704700BF184679DF704700BF18466B
:1085C4007DDF704700BF184664DF704700BF184660
:1085D40082B003460091ADF80630BDF80630DAB239
:1085E400009B1A70BDF806301B0A9AB2009B013337
:1085F400D2B21A700223184602B0704700B589B08F
:10860400039002911346ADF80630029B1B8803F1D8
:108614000902BDF806309A4201D90C2353E004AB99
:108624001846FFF7C5FF0790079B0693069B002B90
:1086340001D0069B47E0029B1B881A46039B134408
:1086440008221A70029B1B8801339AB2029B1A807B
:10865400029B1B881A46039B13441B221A70029B1D
:108664001B8801339AB2029B1A80029B1B881A460C
:10867400039B981804AB01330622194613F068FFD4
:10868400029B1B8806339AB2029B1A809DF8103015
:1086940023F00103DBB2002B07D1029B1B881A468F
:1086A400039B134400221A7006E0029B1B881A469F
:1086B400039B134401221A70029B1B8801339AB254
:1086C400029B1A800023184609B05DF804FB00B52C
:1086D40089B0039002910192ADF80230039B1B789C
:1086E400012B05D1039B5B78002B01D1072391E07B
:1086F400019B1B889A1CBDF802309A420ED8039B3A
:108704001B78012B0CD1019B1B881A46039B5B78B9
:1087140013449A1CBDF802309A4201D90C2379E023
:10872400019B1B88BDF80220D31A9BB2023BADF813
:108734001C30BDF81C30ADF81230019B1B8802338D
:10874400029A13440DF1120211461846FFF738FF3E
:108754000690069B0593059B002B01D0059B59E0D1
:10876400039B1B78022B06D0039B5B781A46BDF84B
:1087740012309A4209D3BDF81230BDF81C209A4237
:1087840003D309238DF81F3016E008238DF81F301A
:10879400039B1B78012B0BD1039B5B781A46BDF816
:1087A4001C30934204D3039B5B78ADF8123003E092
:1087B400BDF81C30ADF81230BDF81230FE2B01D9D3
:1087C4000C2327E0BDF81230DAB2019B1B8819464E
:1087D400029B0B440132D2B21A70019B1B880133F5
:1087E4009AB2019B1A80019B1B881A46029B134470
:1087F4009DF81F201A70019B1B8801339AB2019BBC
:108804001A80019B1A88BDF8123013449AB2019B56
:108814001A800023184609B05DF804FB00B589B03E
:10882400039002911346ADF80630029B1B881A1D73
:10883400BDF806309A4201D90C233AE00DF1160333
:108844001846FFF7B9FE0790079B0693069B002B7B
:1088540001D0069B2DE0029B1B881A46039B134400
:1088640003221A70029B1B8801339AB2029B1A805E
:10887400029B1B881A46039B134419221A70029BFD
:108884001B8801339AB2029B1A80BDF81620029B02
:108894001B881946039B0B4419461046FFF798FEA4
:1088A40003461A46029B1B8813449AB2029B1A8001
:1088B4000023184609B05DF804FB84B002910192CC
:1088C4001A4603468DF80F301346ADF80C30019B61
:1088D4001B88DA1CBDF80C309A4201D90C2328E01D
:1088E400019B1B881A46029B134402221A70019BA7
:1088F4001B8801339AB2019B1A80019B1B881A467C
:10890400029B134401221A70019B1B8801339AB203
:10891400019B1A80019B1B881A46029B13449DF8F5
:108924000F201A70019B1B8801339AB2019B1A8095
:108934000023184604B0704784B0029101921A468D
:1089440003468DF80F301346ADF80C30019B1B889D
:10895400DA1CBDF80C309A4201D90C2328E0019BA3
:108964001B881A46029B134402221A70019B1B881F
:1089740001339AB2019B1A80019B1B881A46029B01
:1089840013440A221A70019B1B8801339AB2019B7B
:108994001A80019B1B881A46029B13449DF80F20E2
:1089A4001A70019B1B8801339AB2019B1A80002321
:1089B400184604B0704700B58FB0039001930B467E
:1089C4008DF80B3013468DF80A3000238DF83330C0
:1089D400109B1B88ADF8303000230D9370E0039B8F
:1089E4005A680D9B9B001A4405AB106818600DF182
:1089F4001B0105AB00221846FFF7E6FD0A900A9B0F
:108A04000993099B002B01D0099B7BE09DF81B3047
:108A14009DF80A209A4250D19DF83330002B01D0A2
:108A2400002300E002238DF82330109B1B881A4694
:108A34009DF81B301A449DF823301A44BDF8443085
:108A44009A4201DD0C235DE09DF8333083F001038D
:108A5400DBB2002B16D0109B1B8801339AB2109BFB
:108A64001A80109B1B881A46019B13449DF80B2007
:108A74001A70109B1B8801339AB2109B1A80012331
:108A84008DF83330109B1B881A46019B1A440DF154
:108A94001B0105AB1846FFF797FD0A900A9B079345
:108AA400079B002B01D0079B2CE0109B1B889DF893
:108AB4001B2013449AB2109B1A800D9B01330D9313
:108AC400039B1B881A460D9B934288DB9DF8333029
:108AD400002B16D0109B1A88BDF83030D31A9BB2E5
:108AE400013BADF82E30BDF82E30FF2B01D90C23FD
:108AF40008E0BDF83030019A1344BDF82E20D2B2FC
:108B04001A70002318460FB05DF804FB00B58BB053
:108B1400059003930B468DF8133013468DF81230ED
:108B24009DF81310BDF8343001930C9B0093039B04
:108B340002220598FFF73FFF0990099B0893089BC1
:108B4400002B01D0089B14E09DF81210BDF83430BE
:108B540001930C9B0093039B10220598FFF72BFFB6
:108B64000990099B0793079B002B01D0079B00E00A
:108B7400002318460BB05DF804FB82B00190019B02
:108B84001B88052B0AD9019B1B88B3F5486F07D9AD
:108B9400019B1B884FF6FF72934201D0072325E007
:108BA400019B5B88052B0AD9019B5B88B3F5486F51
:108BB40007D9019B5B884FF6FF72934201D00723CC
:108BC40014E0019B1B884FF6FF7293420DD0019B6A
:108BD4005B884FF6FF72934207D0019B1A88019B72
:108BE4005B889A4201D9072300E00023184602B0AB
:108BF400704700B587B0039002910192ADF802303E
:108C0400019B1B889A1DBDF802309A4201D90C239E
:108C14004BE00398FFF7B1FF0590059B0493049B79
:108C2400002B01D0049B40E0019B1B881A46029B49
:108C3400134405221A70019B1B8801339AB2019BCD
:108C44001A80019B1B881A46029B134412221A7035
:108C5400019B1B8801339AB2019B1A80039B1A88DB
:108C6400019B1B881946029B0B4419461046FFF7CB
:108C7400AFFC03461A46019B1B8813449AB2019B1E
:108C84001A80039B5A88019B1B881946029B0B443C
:108C940019461046FFF79CFC03461A46019B1B88A5
:108CA40013449AB2019B1A800023184607B05DF85A
:108CB40004FB00B587B0039002910192ADF8023035
:108CC400039B9B8802330593019B1B881A46059BD3
:108CD40013449A1CBDF802309A4201D90C2353E084
:108CE400059BFE2B01D90C234EE0059BDAB2019BB8
:108CF4001B881946029B0B440132D2B21A70019BA5
:108D04001B8801339AB2019B1A80019B1B881A4667
:108D1400029B1344FF221A70019B1B8801339AB2F1
:108D2400019B1A80039B1A88019B1B881946029B8E
:108D34000B4419461046FFF74BFC03461A46019BA9
:108D44001B8813449AB2019B1A80039B9B88002BB7
:108D540019D0039B9B68002B01D1072314E0019BCE
:108D64001B881A46029B9818039B9968039B9B884F
:108D74001A4613F0EDFB019B1A88039B9B8813444E
:108D84009AB2019B1A800023184607B05DF804FBD1
:108D940000B589B0039002910192ADF80230039BB3
:108DA4009B6A002B01D1072371E000238DF81F304B
:108DB40065E0039B996A9DF81F2013465B001344EA
:108DC4009B000B440693069B9B8802330593059BEB
:108DD400FE2B01D90C235AE0059BDAB2019B1B88B8
:108DE4001946029B0B440132D2B21A70019B1B88B4
:108DF40001339AB2019B1A80019B1B881A46029B7D
:108E0400134416221A70019B1B8801339AB2019BEA
:108E14001A80069B1A88019B1B881946029B0B44E7
:108E240019461046FFF7D4FB03461A46019B1B88DC
:108E340013449AB2019B1A80069B9B88002B19D07D
:108E4400069B9B68002B01D1072320E0019B1B8814
:108E54001A46029B9818069B9968069B9B881A469B
:108E640013F076FB019B1A88069B9B8813449AB2E5
:108E7400019B1A809DF81F3001338DF81F30039B2E
:108E840093F82C309DF81F209A4292D30023184661
:108E940009B05DF804FB00B595B005900491039208
:108EA40000231393039B1B88ADF84A30039B0022D5
:108EB4001A80059B93F82D30002B0ED0BDF84A3054
:108EC4001A4603990498FFF799FB1390139B119387
:108ED400119B002B01D0119BD8E0059B9B78002BA4
:108EE4000ED0BDF84A301A4603990498FFF796FC51
:108EF4001390139B1093109B002B01D0109BC5E083
:108F0400059BDB78002B10D0059BDB7858B2BDF8AD
:108F14004A30039A0499FFF7D0FC1390139B0F93E4
:108F24000F9B002B01D00F9BB0E0059B5B68002BCF
:108F340011D0059B5B6893F90000BDF84A30039A91
:108F44000499FFF7F9FC1390139B0E930E9B002BCF
:108F540001D00E9B9AE0059B1B89002B14D0059B26
:108F640003F10800BDF84A300193039B0093049B6E
:108F740006220221FFF7CAFD1390139B0D930D9B4C
:108F8400002B01D00D9B81E0059B1B8A002B14D084
:108F9400059B03F11000BDF84A300193039B009335
:108FA400049B07220321FFF7B1FD1390139B0C933D
:108FB4000C9B002B01D00C9B68E0059B1B8B002BAA
:108FC40014D0059B03F11800BDF84A300193039BAC
:108FD4000093049B15221421FFF798FD1390139B13
:108FE4000B930B9B002B01D00B9B4FE0059B1B6A43
:108FF400002B0FD0059B186ABDF84A30039A0499D8
:10900400FFF7F7FD1390139B0A930A9B002B01D0E3
:109014000A9B3BE0059B5B6A002B0FD0059B586ABB
:10902400BDF84A30039A0499FFF743FE1390139B4B
:109034000993099B002B01D0099B27E0059B93F81A
:109044002C30002B0ED0BDF84A30039A04990598B1
:10905400FFF79EFE1390139B0893089B002B01D0EF
:10906400089B13E0059B1B78002B0ED0BDF84A30FB
:10907400039A04990598FFF72AFB1390139B07930F
:10908400079B002B01D0079B00E0139B184615B0EB
:109094005DF804FB86B0039001921A460B46ADF8C6
:1090A4000A3013468DF80930039B002B02D0019B34
:1090B400002B01D100234CE00023ADF816300CE066
:1090C400BDF81630039A13441B781A46BDF81630BF
:1090D40013449BB20133ADF81630019B1B88BDF8D5
:1090E40016209A4209D3BDF816300133039A13446B
:1090F4001B789DF809209A4205D0BDF81620BDF8CA
:109104000A309A42DCD3BDF81620BDF80A309A42E0
:1091140001D300231DE0BDF816300233ADF814303E
:10912400BDF81630039A13441B78013BADF8123096
:10913400BDF81420BDF812301A44BDF80A309A4222
:1091440001DD002305E0019BBDF814201A80BDF861
:109154001230184606B0704700B585B001900B4632
:10916400ADF8023013468DF801300023ADF80C3011
:109174009DF8013003AABDF802100198FFF78AFF99
:109184000346ADF80E30BDF80E30002B01D100239C
:1091940004E0BDF80C301A46019B1344184605B090
:1091A4005DF804FB72DF704700BF184673DF704739
:1091B40000BF184682B00190019B93F830341846E2
:1091C40002B0704784B00190002303930AE0019A2F
:1091D400039B13441B78002B01D0012306E0039B5F
:1091E40001330393039B052BF1D90023184604B0E4
:1091F4007047000082B003468DF807309DF80730B1
:109204005A1C074B83FB02135910D317C91A0B4678
:109214009B000B44D11ACBB2184602B0704700BF72
:109224006766666682B001900091009BDB7B012B30
:1092340004D1009B9A88019BA3F8242400BF02B0A8
:10924400704700B585B001900091019B002283F81E
:109254002E24009B9A88019BB3F824349A4216D199
:10926400019B1B7983F00103DBB2002B0FD001219A
:10927400019800F0AFF90390039B002B07D0019BEA
:109284009B6B002B03D0019B9B6B0398984700BFFB
:1092940005B05DF804FB00B585B001900091009B1A
:1092A4001B88262B1ED1009B1B7A012B03D0009B0D
:1092B4001B7A022B17D1019B9B781846FFF79AFF64
:1092C40003461946019800F085F90390039B002B8F
:1092D40009D0019B9B6B002B05D0019B9B6B0398D2
:1092E400984700E000BF05B05DF804FB00B585B009
:1092F40001900B468DF80330019B03F22743184677
:10930400FFF760FF03468DF80F309DF80330013BF3
:10931400032B33D801A252F823F000BF319302008B
:10932400559302006993020075930200019B9B7997
:10933400002B0DD0019B93F8243083F00103DBB2A2
:10934400002B05D09DF80F30002B01D0012316E02F
:10935400019BDB79002B05D09DF80F30002B01D049
:1093640002230CE0019B1B7A002B01D0032306E0AF
:10937400019B5B7A002B01D0042300E000231846F4
:1093840005B05DF804FB00BF82B001900091019B21
:10939400012283F83120019B0022C3F82024019B81
:1093A40003F22642009B5A60009B00229A60009BB5
:1093B40002221A70009B80229A810023184602B070
:1093C400704782B001900091019B022283F8312002
:1093D400019B93F82430002B03D0009B07221A70C2
:1093E40002E0009B03221A70019B1B699AB2009B46
:1093F4009A81019B0022C3F82024019B03F2264298
:10940400009B5A60019BDA68009B9A60002318460F
:1094140002B0704700B583B00190019B5B79002BCB
:109424000FD0019B93F82E3483F00103DBB2002BA1
:1094340007D00198FFF7BEFE0346002B01D001239D
:1094440000E0002303F00103DBB2184603B05DF82B
:1094540004FB00B585B001900B468DF80330019BE9
:10946400D3F81004019BB3F8143401221946FFF712
:1094740073FE0390039B002B03D0039B9DF80320F2
:109484001A70019B03F15400019B03F58261019B57
:109494003C331A46FFF786FE0346184605B05DF8CE
:1094A40004FB00B585B001900091019B5A69009BB3
:1094B4009A60019B9B699AB2009B9A81019B93F8E5
:1094C4002430002B04D0019B062283F83C2003E0C7
:1094D400019B012283F83C200198FFF79BFF034680
:1094E400002B13D0009B02221A7504210198FFF768
:1094F400B0FF0390039B0293029B002B01D0029BBD
:109504000FE0019B052283F8312003E0019B032235
:1095140083F83120019B03F58262019BC3F8202468
:109524000023184605B05DF804FB00B585B0019032
:109534000091019BDA69009B9A60019B1B6A9AB2B5
:10954400009B9A81019B93F82430002B04D0019B4B
:10955400062283F83C2003E0019B012283F83C208F
:109564000198FFF757FF0346002B13D0009B0222FC
:109574001A7504210198FFF76CFF0390039B029373
:10958400029B002B01D0029B0FE0019B062283F873
:10959400312003E0019B042283F83120019B03F571
:1095A4008262019BC3F820240023184605B05DF8AD
:1095B40004FB82B00190019B1B68012B03D0019B2B
:1095C4001B68022B01D1012300E00023184602B0DE
:1095D4007047000000B585B001900B468DF803304C
:1095E400019B1B7883F00103DBB2002B01D008231D
:1095F40009E1019B9DF803209A70019B03F2264325
:1096040007220021184612F0D5FF019B9B79002BFD
:1096140003D0019B9B78012B0FD0019BDB79002B9E
:1096240003D0019B9B78012B07D0019BDB79002B96
:1096340014D0019B9B78022B10D1019B5B6B002BF8
:1096440008D0019B012283F82D24019B5B6B082029
:10965400984703E0019B002283F82D249DF80330F2
:1096640019460198FFF742FE03461A46019B9A7079
:10967400019B5B6B002B20D0019B9B78032B03D0B9
:10968400019B9B78042B18D1019B5B79002B14D090
:10969400019B93F82E3483F00103DBB2002B0CD032
:1096A400019B002283F83024019B012283F82F249C
:1096B400019B5B6B0720984703E0019B002283F822
:1096C4002F24019B3C3318220021184612F072FF0C
:1096D400019B012283F83C20019B2C331846FFF7A1
:1096E40068FF0346002B06D0019BDB6ADAB2019BBC
:1096F40083F8512003E0019B012283F85120019B50
:1097040093F82430002B12D0019B28331846FFF71E
:1097140050FF0346002B06D0019B9B6ADAB2019BE3
:1097240083F8522003E0019B012283F85220019B1D
:10973400002283F85020019B9B78042B31D801A28E
:1097440052F823F09D9702005D9702006D97020086
:109754007D9702008D970200019B3C3319460198C6
:10976400FFF712FE03901DE0019B3C33194601985C
:10977400FFF727FE039015E0019B3C33194601983F
:10978400FFF78FFE03900DE0019B3C3319460198CF
:10979400FFF7CBFE039005E0019B002283F8312004
:1097A40000E000BF019B9B78002B20D0019B03F1BC
:1097B4005400019BD3F82014019B3C331A46FFF755
:1097C400F1FC0390039B002B01D0039B1BE0019B46
:1097D40093F85420019B93F8303019461046FFF754
:1097E400E5FC0390039B002B01D0039B0BE0019B42
:1097F4005B6B002B06D0019B5B6B019A92F83120C6
:10980400104698470023184605B05DF804FB00BFD6
:1098140000B585B001900091009B0393019B1B88C8
:10982400262B10D0262B13DC102B02D0112B05D0A5
:109834000EE001990398FFF7F5FC0AE001990398FB
:10984400FFF7FFFC05E001990398FFF724FD00E012
:1098540000BF00BF05B05DF804FB75DF704700BFB3
:10986400184676DF704700BF18467ADF704700BF9E
:1098740018467BDF704700BF1846000084B00346DB
:10988400ADF806300023039316E00F49039A1346FC
:109894009B0013449B000B441B88BDF806209A428E
:1098A40007D1039A13469B0013449B00064A1344B2
:1098B40006E0039B01330393039B002BE5D00023B5
:1098C400184604B0704700BF3839002082B00190B8
:1098D4000B46ADF80230019BBDF802201A80019BB3
:1098E40000221A72019B054903F10A020B4603CBBD
:1098F4001060516000BF02B0704700BF683900209B
:1099040082B00190019B4FF6FF721A8000BF02B033
:10991400704788B00390029111461A460B46ADF881
:1099240006301346ADF80430039B9B881A46BDF8F5
:10993400063013440793039B9B881946039B9B881B
:10994400BDF80620934228BF13469BB2CB1A069358
:10995400039BDB881A46BDF8043013440593039B2C
:10996400DB881946039BDB88BDF80420934228BF9B
:1099740013469BB2CB1A0493029B5A88039B1B8801
:109984009A4205D3029B5A88039B5B889A4201D969
:1099940000231CE0029B9B881A46069B934205D831
:1099A400029B9B881A46079B934201D200230EE038
:1099B400029BDB881A46049B934205D8029BDB88F2
:1099C4001A46059B934201D2002300E00123184666
:1099D40008B0704700B583B00190064B9B69002B1B
:1099E40003D0044B9B690198984700BF03B05DF80E
:1099F40004FB00BF4C39002000B585B0034600913C
:109A0400ADF80630BDF8063000991846FFF725FF7B
:109A14000390039B002B05D0039B112B02D00398CA
:109A2400FFF7D8FF039B002B0CBF01230023DBB2FD
:109A3400184605B05DF804FB00B589B00190019BA0
:109A44000793079B9BB21846FFF718FF0690069BE7
:109A5400002B42D0069B1A7A224B1B7B9A4215D2CA
:109A6400079B9AB2069B0A3319461046FFF7C4FFB8
:109A740003468DF813309DF81330002B2DD0069B30
:109A84001B7A0133DAB2069B1A7226E0069B002287
:109A94001A72144B1B7C002B0FD0079B9BB23B21EB
:109AA4001846FFF7DEFE0590059B002B05D0059BAD
:109AB400082B02D00598FFF78DFF0A4B5B69002B3A
:109AC4000BD000238DF80C30079B9BB2ADF80E3001
:109AD400044B5B6903AA1046984700BF09B05DF8C0
:109AE40004FB00BF4C39002030B587B00190019BC6
:109AF400002B01D10E2353E02B4A019B14461D4633
:109B04000FCD0FC495E8070084E80700264B274AC9
:109B14001A60019B1B68002B11D0019B1B6818461F
:109B2400FFF7A3FE0490049B002B01D0049B37E0B5
:109B3400019B1A681D4B1068516803C308E01B4859
:109B4400FFF797FE0490049B002B01D0049B27E0B1
:109B54000023059320E0059A13469B0013449B00C1
:109B6400134A134403930398FFF7CAFE059B5B0152
:109B7400104A1A44039B5A60039B04330E4A002183
:109B840018460AF0FDFF0490049B002B01D0032328
:109B940006E0059B01330593059B002BDBD00023D6
:109BA400184607B030BD00BF4C390020683900208A
:109BB40038390020183900203D9A020000B587B0DA
:109BC40003460091ADF80630009B5B7A002B1AD156
:109BD400009B1B7A002B03D1164B5B68059302E0B4
:109BE400144B9B680593009B5B68BDF806200599A0
:109BF40018460AF0F9FF0490049B002B16D0049831
:109C0400FFF7E8FE12E0009B00221A72094B5B6921
:109C1400002B0BD001238DF80C30BDF80630ADF8C5
:109C24000E30044B5B6903AA1046984700BF07B087
:109C34005DF804FB4C39002000B585B00190019B10
:109C4400DB7B8DF80F30019B9B88ADF80C309DF8C1
:109C54000F30012B2CD14FF6FF70FFF70FFE02904F
:109C6400029B002B03D10420FFF7B4FE21E0BDF8D2
:109C74000C3019460298FFF729FE029B03F10A00F3
:109C8400019B03F110014FF6FF7340F2F312FFF74B
:109C940040FE03461A46029B5A72074BDB89002B8F
:109CA40007D1BDF80C3002991846FFF787FF00E092
:109CB40000BF05B05DF804FB4C39002000B587B047
:109CC4000190019B9B88ADF81630BDF816301846FC
:109CD400FFF7D4FD0490049B002B0ED0049B5B681B
:109CE40018460AF0B9FF0390039B002B02D0039897
:109CF400FFF770FE0498FFF703FE00BF07B05DF89E
:109D040004FB000000B587B00190019B0633059366
:109D1400059B1A88194BDB899A422BD1059B5B89D9
:109D2400022B27D1019B9B88ADF81230BDF812306D
:109D34001846FFF7A3FD0390039B002B1AD0059B45
:109D44000C33184600F097FB0346002B06D0BDF8F1
:109D5400123003991846FFF731FF0BE0039B5B6851
:109D640018460AF079FF0290029B002B02D0029859
:109D7400FFF730FE00BF07B05DF804FB4C3900204C
:109D840000B585B00190019B9B88ADF80E30BDF8FD
:109D94000E301846FFF772FD0290029B002B15D07F
:109DA400029B03F10A00019B03F108014FF6FF73C4
:109DB40040F2F312FFF7ADFD03461A46029B5A72B6
:109DC400BDF80E3002991846FFF7F8FE00BF05B043
:109DD4005DF804FB00B583B001900091019B1B88E2
:109DE400502B12D0502B18DC122B12D0122B14DC57
:109DF400102B02D0112B04D00FE00198FFF71CFFA9
:109E04000CE00198FFF75AFF08E00198FFF77AFF8A
:109E140004E00198FFF7B4FF00E000BF00BF03B007
:109E24005DF804FB30B58FB00190009100230293DC
:109E3400009B002B1AD000230D9314E06B460D9960
:109E440018460DF0D0FC0346002B09D0029B5A1C87
:109E540002920D9A92B25B0038336B4423F82C2C97
:109E64000D9B01330D930D9B132BE7D9019B1D46CD
:109E740002AC0FCC0FC50FCC0FC594E8070085E8E2
:109E8400070001980FB030BD00B583B00346ADF8AC
:109E94000630BDF80630132B01D900230CE0BDF8C1
:109EA4000630194606480DF049FCBDF8063019463F
:109EB40004480DF043FC0123184603B05DF804FB8D
:109EC400783900207439002000B585B00346ADF818
:109ED4000630002303930DE0039B9B00094A1344BF
:109EE4000433BDF80620114618460DF063FC039BAD
:109EF40001330393039B1D2BEED900BF00BF05B0B4
:109F04005DF804FB7039002000B583B00346ADF85A
:109F14000630BDF80630194603480DF04BFC00BF6F
:109F240003B05DF804FB00BF7839002030B59BB066
:109F3400184B9B68DB431893164B5A6818AB1146B1
:109F440018460DF016FD189A6B4611461846FFF791
:109F540069FF0DAC6D460FCD0FC40FCD0FC495E84E
:109F6400070084E80700002319930BE0199B5B00AA
:109F740068336B4433F8303C1846FFF7A5FF199B50
:109F8400013319930D9B199A9A42EFD300BF00BF76
:109F94001BB030BD7039002000B583B003468DF886
:109FA40007309DF80730194603480DF01CFC0346A2
:109FB400184603B05DF804FB7039002000B583B087
:109FC40001900B46ADF8023013468DF801309DF830
:109FD4000130002B06D0BDF80230194601980DF06F
:109FE400ADFB05E0BDF80230194601980DF0E2FB27
:109FF40000BF03B05DF804FB00B585B0019000918B
:10A00400019B9B88ADF80E30019B1B88103B0A2BEB
:10A0140000F2888001A252F823F000BF4DA0020094
:10A0240089A0020029A1020029A1020029A102009D
:10A0340029A1020029A1020029A1020029A10200EC
:10A04400F3A0020095A00200FFF770FFBDF80E30E8
:10A054001846FFF719FF034683F00103DBB2002B18
:10A0640005D0324AF02104200AF0DEF957E0019BC2
:10A07400DB7B012B53D0BDF80E3019462C480DF074
:10A084005DFB4CE0BDF80E301846FFF73DFF49E09C
:10A09400019B1B7AC3F30313DBB28DF80D309DF8DB
:10A0A4000D30032B8CBF01230023DAB2BDF80E3030
:10A0B40019462048FFF782FF9DF80D30022B8CBF14
:10A0C40001230023DAB2BDF80E3019461A48FFF70F
:10A0D40075FF9DF80D30012B8CBF01230023DAB2EC
:10A0E400BDF80E3019461548FFF768FF1AE0019BCA
:10A0F4001B7A002B15D1019B5B7AC3F3C003DBB23F
:10A10400002B14BF012300238DF80C309DF80C2084
:10A11400BDF80E3019460748FFF750FF01E000BFB5
:10A1240000E000BF00BF05B05DF804FBC0CB030036
:10A134007C390020883900208439002080390020AF
:10A1440000B583B00346ADF80630BDF80630132BD6
:10A1540001D9002306E0BDF80630194603480DF086
:10A1640042FB0346184603B05DF804FB7439002033
:10A1740000B585B00346ADF8063000238DF80F30E6
:10A18400BDF806301846FFF7DBFF0346002B11D05D
:10A19400BDF8063019460A480DF025FB03468DF834
:10A1A4000E309DF80E30002B01D0022300E0012375
:10A1B4008DF80F309DF80F30184605B05DF804FB9C
:10A1C4007C39002000B585B00346ADF80630002385
:10A1D4008DF80F30BDF806301846FFF7B1FF03467F
:10A1E400002B11D0BDF8063019460A480DF0FBFAD1
:10A1F40003468DF80E309DF80E30002B01D002235B
:10A2040000E001238DF80F309DF80F30184605B09B
:10A214005DF804FB7839002000B583B00346ADF83F
:10A224000630BDF806301846FFF78AFF0346002BB8
:10A2340007D0BDF80630194604480DF0D4FA034699
:10A2440000E00023184603B05DF804FB80390020C9
:10A2540000B583B00346ADF80630BDF806301846A5
:10A26400FFF76EFF0346002B07D0BDF806301946F2
:10A2740004480DF0B8FA034600E00023184603B082
:10A284005DF804FB8439002000B583B00346ADF8C3
:10A294000630BDF806301846FFF752FF0346002B80
:10A2A40007D0BDF80630194604480DF09CFA034661
:10A2B40000E00023184603B05DF804FB8839002051
:10A2C40000B583B0182107480DF0A5FA0190019B51
:10A2D400182B01D1182301E0019BDBB2184603B00F
:10A2E4005DF804FB7039002000B583B003460A46CC
:10A2F400ADF8063013468DF805309DF80530184644
:10A30400FFF74AFE0346002B16D0BDF80630184668
:10A31400FFF716FF0346002B0ED09DF805300633D9
:10A324009B00084A13440433BDF80620114618461E
:10A334000DF059FA034600E00023184603B05DF817
:10A3440004FB00BF7039002000B583B00346ADF8AC
:10A3540006300B468DF8053013468DF804309DF811
:10A3640005301846FFF718FE0346002B15D0BDF83C
:10A3740006301846FFF7E4FE0346002B0DD09DF887
:10A38400053006339B00074A134404339DF8042028
:10A39400BDF806101846FFF711FE00BF03B05DF8C4
:10A3A40004FB00BF7039002000B587B00390029110
:10A3B4000192029B002B01D100231FE0002305938F
:10A3C400039B002B19D00023049313E003AB0499DF
:10A3D40018460DF008FA0346002B08D0049B9AB2E5
:10A3E400029B019910469847059B01330593049BF2
:10A3F40001330493049B132BE8D9059B184607B03B
:10A404005DF804FB00B585B00346029101928DF816
:10A414000F309DF80F301846FFF7BEFD034683F05A
:10A424000103DBB2002B01D000230CE09DF80F30B8
:10A43400074A06339B0013445B68019A0299184645
:10A44400FFF7B2FF0346184605B05DF804FB00BFF2
:10A454007039002082B00190019B1B781AB2019BD5
:10A4640001331B781BB21B021BB213431BB29BB2FA
:10A47400184602B0704700B585B001900198FFF707
:10A48400E9FF0346ADF80E30BDF80E3003F00103CA
:10A49400002B14BF01230023DBB2184605B05DF87E
:10A4A40004FBA0DF704700BF1846A1DF704700BF60
:10A4B4001846ADDF704700BF1846B3DF704700BFD2
:10A4C4001846B4DF704700BF1846000000B583B0DB
:10A4D4000190019B002B03D106497220FCF728FA56
:10A4E400019B00221A60BFF35F8F00BF00BF03B05F
:10A4F4005DF804FB4CCC030000B585B00190019BD2
:10A50400002B03D10A498520FCF712FA0121019896
:10A514000DF0D0F90390BFF35F8F00BF039B002BB6
:10A524000CBF01230023DBB2184605B05DF804FB21
:10A534004CCC030000B583B00190019B002B03D1E8
:10A544000A499220FCF7F4F9019B1B68012B03D004
:10A5540006499320FCF7ECF9BFF35F8F00BF019B22
:10A5640000221A6000BF03B05DF804FB4CCC03006A
:10A57400024B00221A7000BF704700BFEC39002064
:10A5840000B585B00190019B5B88184601F088FAFC
:10A5940003461A46019B9A800023039308E0084A65
:10A5A400039B52F8233001989847039B013303938C
:10A5B400039B002BF3D000BF00BF05B05DF804FB84
:10A5C400A032002082B00190019B9B79012B0BD11A
:10A5D400019B1B79012B07D1019B5B8842F6021278
:10A5E400934201D1012300E0002303F00103DBB215
:10A5F400184602B0704700B589B003460091ADF823
:10A60400063003AB00221A605A609A60DA601A615D
:10A6140007238DF80C30BDF80630ADF80E30009BE2
:10A62400059303AB1846FFF7ABFF00BF09B05DF815
:10A6340004FB000010B58AB00346ADF806300023D1
:10A644008DF8273003AB00221A605A609A60DA60F2
:10A654001A61BDF80630ADF80E30BDF806304FF67D
:10A66400FF72934261D0BDF80630184600F062FFD5
:10A674000890089B43F2020293424BD0089B43F29A
:10A68400020293422DD8089B112B11D0089B112B49
:10A6940027D8089B002B03D0089B0B2B0CD020E061
:10A6A4000E238DF80C3003AB1846FFF769FF32E038
:10A6B40001238DF827302EE00F238DF80C301C4A2F
:10A6C4001C4BD31ADB081B0443F00203BDF806201D
:10A6D400194918460FF02AFC03AB1846FFF750FF40
:10A6E40019E0134A134BD31ADB081B0443F001048B
:10A6F40008980EF0CDFE03461A46BDF806300F4901
:10A7040020460FF024FCBDF8063008991846FFF7E0
:10A7140072FF00E000BF0A4B19789DF82720BDF8AE
:10A7240006301846FFF710FE00E000BF0AB010BD67
:10A734003CC70300ACC6030098CC030018CD03004B
:10A74400F539002000B583B003460A46ADF806305B
:10A7540013468DF80530064B19789DF80520BDF891
:10A7640006301846FFF7F0FD00BF03B05DF804FBA8
:10A77400F439002010B58AB00346ADF80630002342
:10A784008DF8273000238DF82630BDF806301846A2
:10A7940000F046FE0890089B43F20202934252D016
:10A7A400089B43F20202934234D8089B862B11D0B3
:10A7B400089B862B2ED8089B002B03D0089B112BBB
:10A7C40004D027E001238DF826303DE001238DF8E5
:10A7D400273039E003AB00221A605A609A60DA60CD
:10A7E4001A6106238DF80C30BDF80630ADF80E3032
:10A7F4001C4A1D4BD31ADB081B0443F00203BDF8AB
:10A8040006201A4918460FF091FB03AB1846FFF7D0
:10A81400B7FE19E0134A144BD31ADB081B0443F0A8
:10A82400010408980EF034FE03461A46BDF80630BB
:10A834000F4920460FF08BFBBDF8063008991846E7
:10A84400FFF7D9FE00E000BF9DF82720BDF80630D1
:10A8540011461846FFF776FF9DF8263018460AB0D1
:10A8640010BD00BF3CC70300ACC603006CCD0300A1
:10A87400A4CD030000B589B003460091ADF80630BD
:10A8840000238DF81F300DF116031846FFF715FE4F
:10A894000690069B002B04D02A494FF49870FCF7CD
:10A8A40047F80123ADF81C3040E00223ADF808302E
:10A8B4000023ADF80A3004AB039304A9BDF81C309F
:10A8C40000221846FFF7FDFD0690069B002B01D0E1
:10A8D400069B32E09DF81F3083F00103DBB2002BAE
:10A8E40009D0BDF8103042F60522934203D101236A
:10A8F4008DF81F3015E09DF81F30002B11D0BDF8E6
:10A90400103042F6021293420BD1009B039302AA29
:10A91400BDF81C10BDF806301846FFF7CAFD034603
:10A924000BE0BDF81C300133ADF81C30BDF8163017
:10A93400BDF81C209A42B8D30523184609B05DF827
:10A9440004FB00BFE4CD030010B58AB00346ADF8A4
:10A95400063001238DF8273000238DF82630BDF80A
:10A964000630184600F096FE0890089B43F2014218
:10A9740093426AD0089B43F2014293426BD8089BEE
:10A98400112B29D8089B112B65D801A252F823F06A
:10A99400E9A902005BAA02005BAA02005BAA02000A
:10A9A4005BAA02005BAA020035AA02005BAA0200AD
:10A9B40015AA02005BAA02005BAA02005BAA0200BD
:10A9C4005BAA02005BAA02005BAA02005BAA020067
:10A9D4005BAA02008DAA0200089B43F20202934282
:10A9E40054D038E003AB00221A605A609A60DA60EF
:10A9F4001A6110238DF80C30BDF80630ADF80E3016
:10AA040001238DF8263003AB1846FFF7B9FD3EE06D
:10AA14000DF10A02BDF8063011461846FFF72AFF69
:10AA24000890089B002B03D1BDF80A30002B2ED1CF
:10AA340000238DF82730BDF80630184601F030F8B1
:10AA44000346184600F06EFE21E0BDF806301846B5
:10AA5400FFF7F0FD1BE0184A184BD31ADB081B0460
:10AA640043F0010408980EF013FD03461A46BDF89E
:10AA74000630134920460FF06AFABDF806300899EB
:10AA84001846FFF7B8FD02E000BF00E000BF0D4B21
:10AA940019789DF82720BDF806301846FFF754FCB6
:10AAA400094B19789DF82620BDF806301846FFF7A3
:10AAB4004BFC00BF0AB010BD3CC70300ACC603008A
:10AAC40078CE0300F6390020F739002000B583B0B2
:10AAD40003460091ADF80630BDF806301846FFF77E
:10AAE400A9FD00BF03B05DF804FB000008B5044BEA
:10AAF4001B78002203491846FFF784FC00BF08BDF9
:10AB0400F5390020D1AA020000B583B003460091B4
:10AB1400ADF806300A48FFF7EFFC0346002B0CD0D3
:10AB2400BDF806301846FFF725FE0346002B03D177
:10AB34000348FFF7FFFC00E000BF03B05DF804FB2F
:10AB4400F039002000B583B003460091ADF806301B
:10AB54000B4B1A78BDF8063011461846FFF7C4FBB4
:10AB6400034683F00103DBB2002B04D0BDF80630AA
:10AB74001846FFF7E9FE00BF03B05DF804FB00BF11
:10AB8400F739002008B5044B1B7800220349184606
:10AB9400FFF738FC00BF08BDF639002049AB0200BE
:10ABA40000B583B00346ADF80630BDF8063018464C
:10ABB40000F04CFD0346002B07D0064B1978BDF876
:10ABC400063001221846FFF7BFFB00BF03B05DF853
:10ABD40004FB00BFF639002000B587B0034600919E
:10ABE400ADF8063004AB04220021184611F0E2FC53
:10ABF40042F6A623ADF8103001238DF812300D4B28
:10AC04001B68039303AA04A9BDF806301846FFF78E
:10AC140048FC0590059B002B07D1074B1978BDF81C
:10AC2400063001221846FFF78FFB00BF07B05DF81E
:10AC340004FB00BFB8CE0300F939002000B585B08D
:10AC44000346ADF80630BDF80630184600F028FF7C
:10AC54000346184602AA0023092102F027F80346F6
:10AC6400052B07D1054B1978BDF80630012218468B
:10AC7400FFF76AFB00BF05B05DF804FBF83900205C
:10AC840000B583B00B4B1B7800220B491846FFF725
:10AC9400B9FB0190019B002B07D1084B1B780022C4
:10ACA40007491846FFF7AEFB019000BF03B05DF8FB
:10ACB40004FB00BFF43900200DAB0200F83900207A
:10ACC400DDAB020000B583B00190019B1B78002B23
:10ACD40011D1019B5B881846FFF7ACFC019B5B8894
:10ACE4001846FFF75DFF019B5B881846FFF7A6FF38
:10ACF400FFF7C6FF00E000BF00BF03B05DF804FB30
:10AD040000B589B00190019B1B78082B5ED1019B93
:10AD14005B7A002B5AD1019B1B7A082B47D0082B56
:10AD24004DDC012B1BD0072B49D1019B9B88184676
:10AD340000F060FF0346ADF81E30BDF81E304FF63C
:10AD4400FF7293423DD0BDF81E3001211846FFF733
:10AD5400F9FCBDF81E301846FFF770FF31E0019B87
:10AD64009B8803AA0121184602F02CFD0690069B3D
:10AD7400002B28D1049B1B78002B24D0019B9B889B
:10AD8400184600F037FF0346ADF81630BDF816300C
:10AD94004FF6FF72934216D00F4B1978BDF8163058
:10ADA40001221846FFF7D0FAFFF7ECFE0BE00B4B3D
:10ADB4001B68012B09D10948FFF7BCFB05E000BF64
:10ADC40004E000BF02E000BF00E000BFFFF758FF4F
:10ADD40000BF09B05DF804FBF6390020F03900200B
:10ADE40008B5FFF7C5FBFFF76BFA03461A462C4B71
:10ADF4001A70FFF765FA03461A462A4B1A70FFF7D2
:10AE04005FFA03461A46284B1A70FFF759FA0346AD
:10AE14001A46264B1A70FFF753FA03461A46244B78
:10AE24001A70FFF74DFA03461A46224B1A70FFF7C1
:10AE340047FA03461A46204B1A70194B1B78182BF5
:10AE440017D0184B1B78182B13D0174B1B78182BC3
:10AE54000FD0164B1B78182B0BD0154B1B78182BC7
:10AE640007D0144B1B78182B03D0134B1B78182BCB
:10AE74000CD1124A124BD31ADB081B0443F0010312
:10AE8400104918460FF044F8032306E00E48FFF774
:10AE94001DFB0E4B01221A700023184608BD00BF8B
:10AEA400F4390020F5390020F6390020F739002064
:10AEB400F8390020F9390020FA3900203CC7030092
:10AEC400ACC60300BCCE0300F0390020EC390020EE
:10AED40010B586B003460A46ADF8063013468DF821
:10AEE400053003AB00221A605A600123ADF80C3020
:10AEF40009238DF80E30194B1978BDF8063000225D
:10AF04001846FFF721FA9DF80530002B01D0144BA9
:10AF140000E0144B0493BDF80630184600F0C0FD61
:10AF24000346184603AB0022194601F087FF05903B
:10AF3400059B002B0FD00C4A0C4BD31ADB081B04C7
:10AF440043F0020405980EF0A3FA03461A46084992
:10AF540020460EF0EBFF00BF06B010BDF83900200C
:10AF640040D0030044D003003CC70300ACC6030038
:10AF74002CCF030000B58DB00190019B9B88ADF8E8
:10AF84002C30019B1B88353B1F2B00F2688101A2EA
:10AF940052F823F0A9B00200ABB1020063B2020080
:10AFA40063B2020063B2020063B2020063B2020041
:10AFB40063B2020063B2020063B2020063B2020031
:10AFC40063B2020063B2020063B2020063B2020021
:10AFD40063B2020063B2020063B2020063B2020011
:10AFE40063B2020063B2020063B2020063B2020001
:10AFF40063B2020063B2020063B2020063B20200F1
:10B0040085B0020063B2020019B0020063B202000C
:10B0140025B00200BDF82C301846FFF70BFB1EE1EB
:10B0240003AB00221A605A609A60DA601A61112335
:10B034008DF80C30BDF82C30ADF80E30BDF82C3046
:10B04400184600F02DFD0346ADF81030BDF8103061
:10B05400184600F067FB864B1978BDF82C300022A7
:10B064001846FFF771F9834B1978BDF82C3000228C
:10B074001846FFF769F903AB1846FFF781FAEEE0CB
:10B08400019B06331846FFF79DFA0346002B00F098
:10B09400DF80BDF82C3001211846FFF753FBFFF782
:10B0A400EFFDD5E000238DF82F30019B9B88ADF890
:10B0B4002C30019B0A3309936F4B1A78BDF82C305E
:10B0C40011461846FFF710F9034683F00103DBB27B
:10B0D400002B40F0BF80684B1978BDF82C3000225B
:10B0E4001846FFF731F9019BDB88B3F5857F4CD017
:10B0F400019BDB88002B0DD0604A614BD31ADB081F
:10B104001B0443F00200019BDB881A465D490EF0E4
:10B114000DFF3AE0099B1B88012B0CD0574A584B72
:10B12400D31ADB081B0443F00200099B1B881A4650
:10B1340055490EF0FBFE099B5B88012B0DD04F4A4D
:10B144004F4BD31ADB081B0443F00200099B5B88B6
:10B154001A464E490EF0EAFE17E0099B043319889B
:10B16400BDF82C3000221846FFF79FF90890089B81
:10B17400002B0AD101238DF82F30454B1978BDF8E7
:10B184002C3001221846FFF7DFF89DF82F3083F0AA
:10B194000103DBB2002B5FD0BDF82C300021184630
:10B1A400FFF796FE58E000238DF82E30019B9B8814
:10B1B400ADF82C30019B0A330A93354B1A78BDF84D
:10B1C4002C3011461846FFF78FF8034683F001032D
:10B1D400DBB2002B42D12E4B1978BDF82C30002263
:10B1E4001846FFF7B1F8019BDB88002B0DD0234AEA
:10B1F400234BD31ADB081B0443F00200019BDB88BA
:10B204001A4620490EF092FE19E00A9B9B88012BF6
:10B214000DD01A4A1A4BD31ADB081B0443F0020060
:10B224000A9B9B881A4619490EF080FE07E00A9B88
:10B234009B79002B14BF012300238DF82E309DF839
:10B244002E20BDF82C3011461846FFF741FE06E0CB
:10B2540000BF04E000BF02E000BF00E000BFFFF752
:10B2640045FCFFF78FFC00BF0DB05DF804FB00BF89
:10B27400F7390020F6390020F93900203CC70300D3
:10B28400ACC603008CCF0300C8CF030004D0030076
:10B29400FA390020AFDF704700BF1846B1DF7047AE
:10B2A40000BF1846B2DF704700BF1846B3DF7047CF
:10B2B40000BF1846044B00221A70044B4FF6FF726D
:10B2C4001A8000BF704700BFFB390020FC39002002
:10B2D40000B585B00190019B9B88184600F08AFC5C
:10B2E40003461A46019B5A800023039308E0084A48
:10B2F400039B52F8233001989847039B013303932F
:10B30400039B002BF3D000BF00BF05B05DF804FB26
:10B31400A432002010B588B02D4A05AB92E8030092
:10B3240083E8030048E02B4B1B8805A9002218463C
:10B3340001F084FD0790079B002B34D06B4600225C
:10B344001A605A609A60DA601A61224B1B88ADF861
:10B354000430079B112B36D0079B862B07D106237D
:10B364008DF800306B461846FFF7B2FF2BE01A4AFF
:10B374001A4BD31ADB081B0443F0010407980EF0A0
:10B3840087F803461A46134B1B88154920460EF0CE
:10B39400DEFD07238DF80030079B02936B461846A9
:10B3A400FFF796FF0FE00B4B1B88184601F002FED7
:10B3B40003461A46074B1A80064B1B884FF6FF724A
:10B3C4009342B0D100E000BF00BF08B010BD00BF81
:10B3D400B4D00300FC39002044C70300ACC603000A
:10B3E4005CD0030000B583B00190064B1B884FF678
:10B3F400FF72934201D0FFF78DFF00BF03B05DF8E9
:10B4040004FB00BFFC39002008B5FFF753FF034BD2
:10B4140001221A700023184608BD00BFFB39002022
:10B4240030B58BB00346ADF80630BDF8063018468B
:10B4340000F036FB0346ADF81E30BDF81E304FF663
:10B44400FF72934202D143F202036AE00123ADF892
:10B45400223000238DF8213000238DF82130BDF8EF
:10B4640022305A1CADF822201A4603ABBDF81E0048
:10B47400082102F0BDF90990099B002B47D1049BD8
:10B484000693069B03221A60069B991D069B1A1DB0
:10B49400069B1B68BDF80600FFF704FF0990099B93
:10B4A400002B09D1BDF81E20BDF81E300821184616
:10B4B40002F05DFA09902FE0099B0C2B03D10123C4
:10B4C4008DF8213004E0099B052B01D10023099359
:10B4D400BDF81E300821184602F02AFA0590059B93
:10B4E400002B19D0104A114BD31ADB081B0443F06C
:10B4F4000104BDF81E5005980DF0CAFF03462A4604
:10B504000B4920460EF023FD0323099304E0099B15
:10B51400072B01D10C2309939DF82130002B9BD1DB
:10B52400099B18460BB030BD44C70300ACC60300EA
:10B53400BCD0030000B58BB00346ADF80630BDF8AF
:10B544000630184600F0ACFA0346ADF81430002378
:10B5540008930023ADF81E300323069301238DF8CE
:10B564001730BDF814304FF6FF72934216D002AA7A
:10B57400BDF814300821184602F024F90990099BFB
:10B58400002B0BD1039B0493049B06330893049B69
:10B594009B88ADF81E30049B1B680693BDF81E20E3
:10B5A400BDF80600069B0899FFF778FE0990099BF1
:10B5B400042B02D11123099331E0099B082B02D1FA
:10B5C400002309932BE0099B0B2B28D100238DF832
:10B5D4001730069B03F00203002B02D001230693CD
:10B5E4001DE0089B002B03D1BDF81E30002B07D0B3
:10B5F400002308930023ADF81E30032306930EE0C6
:10B604000F4A104BD31ADB081B0443F00103BDF8A7
:10B6140006200D4918460EF089FC03230993099B63
:10B624000B2BBBD09DF8173083F00103DBB2002B4A
:10B6340001D00B230993099B18460BB05DF804FB5A
:10B6440044C70300ACC603003CD1030000B589B075
:10B654000346ADF806300DF117030493BDF8063028
:10B66400184600F01DFA0346ADF81E3003AABDF8D3
:10B674001E300121184602F0A5F80690069B002B07
:10B6840001D0002301E0049B1B78184609B05DF843
:10B6940004FB000010B584B00346ADF806304FF645
:10B6A400FF73ADF80E301B48FFF700FE0290029BBB
:10B6B400002B11D0184A194BD31ADB081B0443F092
:10B6C400010402980DF0E4FE03461A46144920468C
:10B6D4000EF02CFC03231AE00E4B1988BDF80E2043
:10B6E400BDF806301846FFF7D5FD0290029B43F2E1
:10B6F4000302934205D1074B1B8801339AB2054BD1
:10B704001A80029B43F203029342E5D0029B18463F
:10B7140004B010BDFE39002044C70300ACC60300CA
:10B72400B4D1030000B585B00346ADF80630084A2D
:10B7340002AB92E8030083E8030002A9BDF80630D7
:10B744000022184601F07AFB00BF05B05DF804FB47
:10B7540000D2030046DF704700BF184600B585B02D
:10B7640001900023039308E0084A039B52F8233016
:10B7740001989847039B01330393039B012BF3D94F
:10B7840000BF00BF05B05DF804FB00BF10D3030089
:10B7940084B00190002303930AE0019A039B1344AD
:10B7A4001B78002B01D0012306E0039B0133039394
:10B7B400039B0F2BF1D90023184604B0704700B542
:10B7C40083B001900091019B002B02D0009B002BC1
:10B7D40001D100231BE0019B1B78C3F34603DAB2BB
:10B7E400009B1B78C3F34603DBB29A4201D00023CB
:10B7F4000DE0019B581C009B01330622194610F0F2
:10B8040048FE0346002B0CBF01230023DBB218467D
:10B8140003B05DF804FB000030B597B00190019BC4
:10B824001B88102B40F09180019B0AAC1D1D0FCD8D
:10B834000FC40FCD0FC495E8070084E807004FF646
:10B84400FF73ADF856309DF82C3023F00103DBB2C2
:10B85400062B47D001F094FA9DF82C30C3F346032D
:10B86400DBB2012B02DC002B15DA3BE0022B2ED0DD
:10B8740038E0089B03F111020AAB04331146184661
:10B88400FFF79DFF0346002B05D0BDF82630ADF829
:10B89400563000BF26E007AA0DF1260319460720FB
:10B8A40001F078FA0346002BE3D11BE0089B5A1CF5
:10B8B4000AAB04331146184600F08FFA0346002BF6
:10B8C40005D0BDF82630ADF8563000BF09E007AA10
:10B8D4000DF126031946072001F05CFA0346002BFC
:10B8E400E4D100BFBDF828301946194A0B469B0025
:10B8F4000B445B001344BDF856201A80BDF8283071
:10B904001946134A0B469B000B445B001344023355
:10B914000BAA106818609188927999809A71BDF881
:10B9240056304FF6FF72934210D0BDF82830ADF870
:10B934000A30BDF85630ADF80C3000238DF80830CD
:10B9440002AB1846FFF70AFF00E000BF17B030BD96
:10B95400003A002000B587B001900091019B11339B
:10B964000593009B11330493019B581C009B0133E6
:10B974001022194610F08DFD0346002B11D1019BB6
:10B9840001331846FFF704FF0346002B09D0009B40
:10B9940001331846FFF7FCFE0346002B01D00123B8
:10B9A40000E000238DF80F309DF80F3003F0010301
:10B9B4008DF80F3004990598FFF701FF03468DF8C1
:10B9C4000E30059B1B7823F00103DBB2042B16D049
:10B9D400059B1B7823F00103DBB2062B0FD0049BDD
:10B9E4001B7823F00103DBB2042B08D0049B1B78E3
:10B9F40023F00103DBB2062B01D0012300E0002376
:10BA04008DF80D309DF80D3003F001038DF80D30E5
:10BA14009DF80E30002B03D09DF80D30002B0AD179
:10BA24009DF80F30002B08D09DF80D3083F00103F2
:10BA3400DBB2002B01D0012300E0002303F001035B
:10BA4400DBB2184607B05DF804FB00B587B001907F
:10BA54000B46ADF8023001F093F910E0BDF8163052
:10BA6400BDF802209A420AD0049B19460198FFF7B8
:10BA740071FF0346002B02D0BDF816300BE003AA79
:10BA84000DF116031946072001F084F90346002B33
:10BA9400E4D14FF6FF73184607B05DF804FB0000CD
:10BAA40000B583B00346ADF80630BDF80630132B5D
:10BAB4000AD8BDF806301846FEF742FB034683F069
:10BAC4000103DBB2002B02D04FF6FF7308E0BDF890
